:100000000C9462000C948A000C948A000C948A0070
:100010000C948A000C948A000C948A000C948A0038
:100020000C948A000C948A000C948A000C948A0028
:100030000C948A000C948A000C948A000C948A0018
:100040000C9475020C948A000C948A000C948A001B
:100050000C948A000C948A000C948A000C948A00F8
:100060000C948A000C948A000000000024002700F1
:100070002A000000000023002600290000000000E4
:10008000250028002B0004040404040404040202D4
:100090000202020203030303030301020408102007
:1000A0004080010204081020010204081020000012
:1000B0000008000201000003040700000000000027
:1000C0000000370311241FBECFEFD8E0DEBFCDBF45
:1000D00011E0A0E0B1E0EEEDF6E002C005900D9277
:1000E000A031B107D9F721E0A0E1B1E001C01D9234
:1000F000AE31B207E1F710E0C2E6D0E004C02197CC
:10010000FE010E946703C136D107C9F70E94BF02F2
:100110000C946D030C94000080911C0190911D01C2
:100120008230910538F0880F991F880F991F059725
:100130000197F1F70895833081F028F4813099F028
:100140008230A9F008958730A9F08830C9F0843052
:10015000B1F4809180008F7D03C0809180008F7703
:1001600080938000089584B58F7784BD089584B509
:100170008F7DFBCF8091B0008F778093B000089582
:100180008091B0008F7DF9CFCF93DF93282F30E09F
:10019000F901E255FF4F8491F901E656FF4FD491E2
:1001A000F901EA57FF4FC491CC2391F081110E94CD
:1001B0009B00EC2FF0E0EE0FFF1FE458FF4FA591DE
:1001C000B4918FB7F894EC91D095DE23DC938FBF78
:1001D000DF91CF910895CF93DF9390E0FC01E65635
:1001E000FF4F24918A579F4FFC0184918823D1F0BF
:1001F00090E0880F991FFC01E859FF4FA591B49139
:10020000FC01E458FF4FC591D49161110EC09FB716
:10021000F8948C91E22FE0958E238C932881E22331
:10022000E8839FBFDF91CF9108958FB7F894EC9149
:10023000E22BEC938FBFF6CFCF93DF93C9E1D1E0F0
:1002400061E089810E94EB000E948C0060E088815F
:100250000E94EB000E948C0060E089810E94EB000C
:10026000DF91CF910C948C000F931F93CF93DF936A
:10027000D82FC8E061E0809119010E94EB000E9434
:100280008C000D2F10E060E0D0FF61E080911A013A
:100290000E94EB000E948C0060E0809119010E9496
:1002A000EB000E948C0015950795D02FC15011F7D7
:1002B00061E0809119010E94EB0060E080911A01D9
:1002C0000E94EB000E948C0060E0809119010E9466
:1002D000EB000E948C0020911A0130E0F901E255F8
:1002E000FF4F8491F901E656FF4FD491F901EA5787
:1002F000FF4FC491CC2339F181110E949B00EC2F58
:10030000F0E0EE0FFF1FEE58FF4FA591B491EC9176
:10031000ED23C1E009F4C0E0C11105C061E08091A6
:100320001A010E94EB000E948C0061E0809119018B
:100330000E94EB000E948C008C2F8170DF91CF9186
:100340001F910F910895C0E0E9CF61E080911A01FB
:100350000E94EB000C948C003FB7F894809115013B
:1003600090911601A0911701B091180126B5A89B94
:1003700005C02F3F19F00196A11DB11D3FBFBA2F37
:10038000A92F982F8827BC01CD01620F711D811DF7
:10039000911D42E0660F771F881F991F4A95D1F77C
:1003A00008958F929F92AF92BF92CF92DF92EF9279
:1003B000FF924B015C010E94AC016B017C010E9429
:1003C000AC016C197D098E099F09683E7340810557
:1003D0009105A8F321E0821A9108A108B10888EEDE
:1003E000C80E83E0D81EE11CF11C81149104A10405
:1003F000B10429F7FF90EF90DF90CF90BF90AF90BE
:100400009F908F900895DF92EF92FF920F931F932A
:10041000CF93DF9300D000D0CDB7DEB79B0140E093
:1004200087FF02C0819541E021153105A1F51982B0
:100430001A821B828FE38C830E94A50180E40E94B4
:1004400034010E941C010E94A50180EC0E9434012D
:1004500089810E9434018A810E9434018B810E942B
:1004600034018C810E9434010E941C010E94A5016C
:1004700080911B018F7080580E9434010F900F9063
:100480000F900F90DF91CF911F910F91FF90EF9000
:10049000DF900C941C01FE0131967E0193E0E91A75
:1004A000F108082F880F110B80E4D82EC901B8017C
:1004B0000E945303582F811109C02115310531F4D1
:1004C0001382442361F0D38240E009C080509F4FE3
:1004D000DC018C918383511102C0232B91F39B018A
:1004E0003197EE16FF0611F7A7CF1F920F920FB6A6
:1004F0000F9211242F933F938F939F93AF93BF93AA
:100500008091110190911201A0911301B0911401F9
:100510003091100123E0230F2D3758F50196A11DCE
:10052000B11D209310018093110190931201A093AB
:100530001301B09314018091150190911601A091BF
:100540001701B09118010196A11DB11D80931501ED
:1005500090931601A0931701B0931801BF91AF912A
:100560009F918F913F912F910F900FBE0F901F90F1
:10057000189526E8230F0296A11DB11DD2CF7894BD
:1005800084B5826084BD84B5816084BD85B5826098
:1005900085BD85B5816085BD80916E008160809349
:1005A0006E001092810080918100826080938100B2
:1005B00080918100816080938100809180008160C2
:1005C000809380008091B10084608093B10080911D
:1005D000B00081608093B00080917A008460809345
:1005E0007A0080917A00826080937A0080917A000C
:1005F000816080937A0080917A00806880937A008D
:100600001092C1008EE080931B0100E010E0D0E06A
:10061000C0E0BE018AE00E94030268EE73E080E061
:1006200090E00E94D1012196C536D10591F760ED89
:1006300077E080E090E00E94D101C4E6D0E0BE0106
:100640008AE00E94030268EE73E080E090E00E947E
:10065000D1012197A0F760ED77E080E090E00E9463
:10066000D1010115110599F20E940000D0CFCF935E
:10067000DF93C9E1D1E082E0888383E0898384E667
:1006800090E09C838B8360E082E00E94EB0060E05E
:1006900089810E94EB0088810E94C4008981DF91DA
:1006A000CF910C94C400AA1BBB1B51E107C0AA1F29
:1006B000BB1FA617B70710F0A61BB70B881F991F03
:1006C0005A95A9F780959095BC01CD010895EE0F3C
:0E06D000FF1F0590F491E02D0994F894FFCFE0
:1006DE003F065B4F666D7D077F6F777C395E797164
:00000001FF
